S01100002E2E2F50726F746575732E73313966
S32D0000C000000000205DC2000011C3000017C300001DC3000023C3000029C3000000000000000000000000000073
S32D0000C028000000002FC3000035C30000000000003BC3000041C3000031D200003DD2000049D2000055D20000AA
S32D0000C05061D200006DD2000079D2000085D2000091D200009DD20000A9D20000B5D20000C1D20000CDD20000A8
S32D0000C078D9D20000E5D20000F1D20000FDD2000009D3000015D3000021D300002DD3000039D3000045D30000CA
S32D0000C0A051D300005DD3000069D3000075D3000081D300008DD3000099D30000A5D30000B1D30000BDD30000EE
S32D0000C0C8C9D30000D5D30000E1D30000EDD30000F9D3000005D4000011D400001DD4000029D4000035D4000011
S32D0000C0F041D400006D2901004DD4000059D4000065D4000071D400007DD4000089D4000095D40000A1D400001E
S32D0000C118ADD40000B9D40000C5D40000D1D40000DDD40000E9D40000F5D4000001D500000DD5000019D50000D0
S32D0000C14025D5000031D500003DD5000049D500005900010055D5000061D500006DD5000079D5000085D50000FD
S32D0000C16891D500009DD50000A9D50000B5D50000C1D50000CDD50000D9D50000E5D50000F1D50000FDD5000091
S32D0000C19009D6000015D6000021D6000045FC000005FB0000A5FB0000B5CF0000E9FC00002DD6000039D6000064
S32D0000C1B845D60000B4BA010000000020C8160000B4BA01000000FF1F00000000C8160020900400000000FF1F94
S32D0000C1E00000000080B489B000AFF860B9607A60BB68FB61FB68BB6100237B617A697B689A420BD2BA69131DFB
S32D0000C208BB61FB69191DF96112681A607B6904337B61EFE700BF2437BD4680BC704780B485B000AF786039609E
S32D0000C2307B68FB600023BB60BA683B689A4208D2FB681A1DFA6000221A60BB680433BB60F2E700BF1437BD46FE
S32D0000C25880BC704780B586B000AF72B6234B4CF220521A80214B4DF628121A80204B4FF4E9721A801F4B7B615F
S32D0000C2807B691F4A934214D27B691A1D7A611B683B617B691A1D7A611B68FB607B691A1D7A611B68BB60BA68E9
S32D0000C2A8F9683869FFF79AFFE6E77B69134A93420ED27B691A1D7A611B68FB607B691A1D7A611B68BB60B9688B
S32D0000C2D0F868FFF7A8FFECE70B4B7B600B4A7B681A6008F0B7FC62B600F02CFF00F0E4FDFEE700BF0E200540C7
S32D0000C2F800200540BCC10000D4C10000E4C1000008ED00E000C0000080B400AFFEE780B400AFFEE780B400AFF4
S32D0000C320FEE780B400AFFEE780B400AFFEE780B400AFFEE780B400AFFEE780B400AFFEE780B400AFFEE780B426
S32D0000C34800AFFEE7FFFFFFFFFFFFFFFFFFFFFFFFFFFFFFFFFFFFFFFFFFFFFFFFFFFFFFFFFFFFFFFFFFFFFFFF57
S32D0000C370FFFFFFFFFFFFFFFFFFFFFFFFFFFFFFFFFFFFFFFFFFFFFFFFFFFFFFFFFFFFFFFFFFFFFFFFFFFFFFFFC7
S32D0000C398FFFFFFFFFFFFFFFFFFFFFFFFFFFFFFFFFFFFFFFFFFFFFFFFFFFFFFFFFFFFFFFFFFFFFFFFFFFFFFFF9F
S32D0000C3C0FFFFFFFFFFFFFFFFFFFFFFFFFFFFFFFFFFFFFFFFFFFFFFFFFFFFFFFFFFFFFFFFFFFFFFFFFFFFFFFF77
S32D0000C3E8FFFFFFFFFFFFFFFFFFFFFFFFFFFFFFFFFFFFFFFFFFFFFFFFFFFFFFFFFFFFFFFFFFFFFFFFFEFFFFFF50
S32D0000C41010B5054C237833B9044B13B10448AFF300800123237010BDC816002000000000B4BA010008B5034BE4
S32D0000C4381BB103490348AFF3008008BD00000000CC160020B4BA010080B500AF0F4806F02FF90346184607F024
S32D0000C460F9FB02460B464FF000000B4907F074FD02460B46104619464FF00002074B07F041FC02460B46104622
S32D0000C488194607F01DFF0346184680BD4C1A0020000027400000434090B585B000AF78603F4803F07DFC3F4845
S32D0000C4B003F07AFC4FF00001786808F01FFA0346002B10D0FFF7C4FF034683F000431946374801F03DF9FFF7BD
S32D0000C4D8BBFF03461946354801F036F913E07B6883F000437B60FFF7AFFF034619462E4801F02AF9FFF7A8FF5D
S32D0000C500034683F0004319462A4801F021F9786807F0A0FB22A3D3E9002307F01DFD02460B461046194607F0C6
S32D0000C528CFFE0346FB601E4803F028FC0346184607F0D0FF04461E49F86808F01FF803461946204608F0B8F9B3
S32D0000C5500346002B15D0154803F014FC0346184607F0BCFF04461449F86808F00BF803461946204608F0A4F906
S32D0000C5780346002B01D0012300E00023002B00D0D1E7094801F09EF8084801F09BF800BF1437BD4690BD00BFB1
S32D0000C5A0FCB33D7F7CD922400017002004170020F8160020F016002000009F43FFFFFFFF90B585B000AF7860A6
S32D0000C5C84FF00001786808F095F90346002B0ED0FFF73AFF03461946474801F0B5F8FFF733FF034619464548EC
S32D0000C5F001F0AEF815E0FFF72BFF034683F000431946404801F0A4F8FFF722FF034683F0004319463A4801F016
S32D0000C6189BF87B6883F000437B607968384808F061F80346184607F011FB02460B462EA1D1E9000107F08CFCEF
S32D0000C64002460B461046194607F03EFE0346FB60F86807F0FFFA28A3D3E9002307F07CFC02460B4610461946F0
S32D0000C66807F02EFE0346BB60264803F099FB264803F096FB234803F081FB0346184607F029FF04462149B868C2
S32D0000C69007F078FF03461946204608F011F90346002B15D01A4803F06DFB0346184607F015FF04461749B8686C
S32D0000C6B807F064FF03461946204608F0FDF80346002B01D0012300E00023002B00D0D1E70A4800F0F7FF084858
S32D0000C6E000F0F4FF00BF1437BD4690BDAFF300803FDF572302EF3640FCB33D7F7CD92240F0160020F816002058
S32D0000C7080000B443001700200417002000009F43B0B588B000AF07F1080484E803003A713B60FFF791FE0346E5
S32D0000C730184608F0EDF80346FB614FF00001386808F0BEF80346002B06D0FB695B42FB613B6883F000433B60D2
S32D0000C75897F83030002B02D0FB695B42FB61F86907F0B8FE024607F108031146184600F0EBFF39682C4807F076
S32D0000C780B5FF0346184607F065FA02460B4624A1D1E9000107F0E0FB02460B461046194607F092FD0346BB61B6
S32D0000C7A8B86907F053FA1EA3D3E9002307F0D0FB02460B461046194607F082FD03467B613B1D184603F0ECFA24
S32D0000C7D03B1D184603F0D6FA0346184607F07EFE04461449786907F0CDFE0346012215461946204608F064F87E
S32D0000C7F80346002B01D100231D46EBB2002B00D0E2E707F10803184600F05CFF00BF2037BD46B0BDAFF3008092
S32D0000C8203FDF572302EF4640FCB33D7F7CD922400000B44300009F4380B500AFFFF708FE034683F000431946A2
S32D0000C848194800F081FFFFF7FFFD03461946174800F07AFF164802F057FF0346002B05D1144802F051FF0346B8
S32D0000C870002B01D0012300E00023002B05D00AA1D1E9000102F026FEE8E7094800F01EFF084800F01BFF0A4822
S32D0000C89803F086FA094803F083FA00BF80BD00BF9A9999999999B93FF8160020F0160020E8160020EC16002060
S32D0000C8C0001700200417002080B582B000AF78607B6883F000431946194800F039FF7968184800F035FF1848A4
S32D0000C8E802F012FF0346002B07D0164802F00CFF0346002B01D0012300E00023002B05D00BA1D1E9000102F0B4
S32D0000C910E1FDE8E70A4800F0D9FE0A4800F0D6FE0B4803F041FA0B4803F03EFA00BF0837BD4680BDAFF30080BE
S32D0000C9389A9999999999B93FF8160020F0160020E8160020EC160020001700200417002090B585B000AF4E487D
S32D0000C96003F046FAF8600023BB60BB68042B2CDC4A494B4800F0ECFE4A494B4800F0E8FE4FF00000494902F0C7
S32D0000C988A5FD454800F09EFE454800F09BFE404803F02AFA0346012214461946F86807F0A9FF0346002B01D1A7
S32D0000C9B000231C46E3B2002B03D0374803F018FAF860BB680133BB60CFE700237B607B68042B2CDC334932482F
S32D0000C9D800F0BAFE2F49324800F0B6FE4FF00000304902F073FD2C4800F06CFE2C4800F069FE274803F0F8F9ED
S32D0000CA000346012214461946F86807F077FF0346002B01D100231C46E3B2002B03D01E4803F0E6F9F8607B6845
S32D0000CA2801337B60CFE74FF000001F4902F04EFDF86807F00BF914A3D3E9002307F0EEFB0346002B0ED01949B2
S32D0000CA50194804F0F0FAF968174804F013FB4FF00000134902F036FD01230DE01349124804F0E1FAF9681048A8
S32D0000CA7804F004FB4FF000000B4902F027FD002318461437BD4690BDCDCCCCCCCCCCF43FE4160020000020C1E1
S32D0000CAA0F816002000002041F01600200000D03F0000E03F5CAF0100001A002064AF010080B582B002AFFFF71D
S32D0000CAC8B7FE4FF00000114902F000FD1048FFF7E3FC104A104901230093104B127803C9FFF716FE0E48FFF765
S32D0000CAF0D7FC0E48FFF764FD0D48FFF7D1FC0948FFF75EFDFFF798FE0348FFF7C9FC00BFBD4680BD0000E03F2E
S32D0000CB18000040C000170020F81600200000B44200008441000034C233339D4180B582B000AF0346FB7115486D
S32D0000CB40FFF7AEFCFB79002B06D01348FFF738FD1248FFF7B9FE08E01148FFF7A1FC0E48FFF72EFD0D48FFF78F
S32D0000CB68AFFE0E48FFF798FC0D48FFF725FDFFF75FFE0C48FFF790FC0B48FFF71DFD0B48FFF78AFC00BF08374C
S32D0000CB90BD4680BD000080C0000034C200000C420000A0C0000040C10000B4C20000C0C00000B4420000C04066
S32D0000CBB880B582B002AF1348FFF76EFC1248FFF7FBFCFFF735FE1148FFF766FC104A114901230093104B12780B
S32D0000CBE003C9FFF799FD0F48FFF75AFC0E48FFF7E7FC4FF08240FFF753FC0C48FFF7E0FCFFF71AFE00BFBD46C1
S32D0000CC0880BD00BF0000E0C00000B4C2000040C000170020F81600200000344200009041000034C20000B44254
S32D0000CC3080B582B000AF0346FB71FB79002B11D01849194803F00CFC1849174803F008FC4FF00000164902F087
S32D0000CC583DFC4FF04040FFF71FFC1AE01349104803F0FAFB4FF000000F4902F02FFC4FF08040FFF711FC4FF01A
S32D0000CC8000000B4902F026FC0B49074803F0E8FB4FF00000064902F01DFC00BF0837BD4680BD00BF00002043AC
S32D0000CCA8081700200000DC420000F03F0000F04100000C43FFFFFFFF80B582B000AF284806F020FD38602749B5
S32D0000CCD0274803F0C5FB274B7B603B68012B10D1786806F0B7FF1EA3D3E9002306F054FE02460B461046194655
S32D0000CCF807F0E6FA03467B6008E03B68022B05D11B49786807F032FB03467B607868FFF7C3FB4FF4FA7114485B
S32D0000CD2003F064FB40F69211114803F07CFB4FF00000124902F0CEFB0120FFF779FF4FF000000F4902F0C6FBC9
S32D0000CD480020FFF771FF4FF000000C4902F0BEFB00BF0837BD4680BDF6285C8FC2F50E40681A002000002043A7
S32D0000CD70081700209A99993E0000D8400000F03F000014400000E03F80B500AF4FF4FA71154803F02BFB40F654
S32D0000CD98AD11134803F043FB1249114803F05CFB4FF00000104902F091FB10490C4803F053FB09A1D1E90001BC
S32D0000CDC002F088FB0949084803F04AFB4FF00000074902F07FFB00BF80BD00BFAFF30080CDCCCCCCCCCCD43F42
S32D0000CDE814170020000034430000F03F0000704280B582B002AF0E48FFF74EFB0D4A0E49012300930D4B127886
S32D0000CE1003C9FFF781FC0C48FFF756FD0B48FFF73FFB0B48FFF7CCFB4FF07A50FFF738FB00BFBD4680BD00BF95
S32D0000CE380000824100170020F8160020000034420000AA420000C0C00000B442FFFFFFFF98B500AF144802F086
S32D0000CE60C7FF0346012214464FF08041184607F045FD0346002B01D100231C46E3B2002B05D009A1D1E90001BC
S32D0000CE8802F024FBE6E70948FFF706FB04A1D1E9000102F01BFB00BF98BD00BFAFF300809A9999999999B93F6A
S32D0000CEB0E4160020000040C080B582B000AF104803F0EDFE0F49104806F0F6F9FFF7C4FFFFF792FFFFF7F4FE31
S32D0000CED8FFF7F2FDFFF73CFD0346FB71FB791846FFF724FEFFF74CFFFFF762FE002318460837BD4680BD00BF23
S32D0000CF00001A00206CAF0100681A002080B582B000AF786039607B68012B2AD13B684FF6FF72934225D10F2126
S32D0000CF28144802F04FFF1F21134802F011FB0021124802F00DFB124A0221124800F084FB0F4A0021104800F027
S32D0000CF507FFB0B210F4802F05FFC08210E4802F05BFC00210D4803F025FA01210C4803F021FA00BF0837BD4694
S32D0000CF7880BD00BFE4160020E8160020EC16002000001041F0160020F8160020001700200417002008170020DF
S32D0000CFA01417002080B500AF4FF6FF710120FFF7ADFF80BD80B500AF0F4BD3F8A03003F48053002B14BF0123BA
S32D0000CFC80023DBB2002B10D0094BD3F8A030084A23F48053C2F8A030064806F04DFC064B1B68054A23F40053B1
S32D0000CFF0136000BF80BD00BF00C00440881A0020C0F00F4080B400AF124B4FF480725A63114B5B69104A43F43D
S32D0000D018005353610E4B1B680D4A43F4005313600A4B0C4A1A630C4BD3F888310A4A43F08063C2F88831084B80
S32D0000D0409B68074A43F08063936000BFBD4680BC704700BF00C00440C0F00F4003010A0000E100E080B400AF3C
S32D0000D068334B00225A70324B98221A70304B9B79DBB203F01003002B14BF01230023DBB2002B00D0F2E72A4B32
S32D0000D0909B79DBB29B08DBB203F00303022B14BF01230023DBB2002B00D0F0E7224B18221A71214B00225A7177
S32D0000D0B8204B03F580531A461F4B53641C4B54225A711B4B9B79DBB203F02003002B0CBF01230023DBB2002BD9
S32D0000D0E000D0F2E7144B9B79DBB203F04003002B0CBF01230023DBB2002B00D0F2E70E4B1B78DBB20C4A03F0E3
S32D0000D1083F03DBB213700A4B9B79DBB29B08DBB203F00303032B14BF01230023DBB2002B00D0F0E70023184660
S32D0000D130BD4680BC704700BF00400640007004400000130180B500AF314B03F580539B6B2F4A43F4785302F52B
S32D0000D15880529363FFF752FFFFF780FF2B4B58221A602A4B1B684FF47A7202FB03F3284A1360274B1B681A4667
S32D0000D180234B03F580535B6C1B0E03F00F030133B2FBF3F31A46214B1A601D4B03F58053DB6B1B4A43F02253C0
S32D0000D1A802F58052D363184B03F580531B6B164A43F0006302F580521363174B4FF480721A61642002F058F899
S32D0000D1D0134B5B69124A23F010035361104B00221A600F4B10225A610E4803F0E5FB02F0E7FE02F045FF0C4811
S32D0000D1F802F0A4F80B4806F093FB4FF4FA6002F04FF900BF80BD00BF007004404C1900204819002050190020CF
S32D0000D22000D00340001A002044190020F81A002080B500AFFFF787F800BF80BD80B500AFFFF781F800BF80BD40
S32D0000D24880B500AFFFF77BF800BF80BD80B500AFFFF775F800BF80BD80B500AFFFF76FF800BF80BD80B500AF0B
S32D0000D270FFF769F800BF80BD80B500AFFFF763F800BF80BD80B500AFFFF75DF800BF80BD80B500AFFFF757F8B8
S32D0000D29800BF80BD80B500AFFFF751F800BF80BD80B500AFFFF74BF800BF80BD80B500AFFFF745F800BF80BD21
S32D0000D2C080B500AFFFF73FF800BF80BD80B500AFFFF739F800BF80BD80B500AFFFF733F800BF80BD80B500AF47
S32D0000D2E8FFF72DF800BF80BD80B500AFFFF727F800BF80BD80B500AFFFF721F800BF80BD80B500AFFFF71BF830
S32D0000D31000BF80BD80B500AFFFF715F800BF80BD80B500AFFFF70FF800BF80BD80B500AFFFF709F800BF80BD5C
S32D0000D33880B500AFFFF703F800BF80BD80B500AFFEF7FDFF00BF80BD80B500AFFEF7F7FF00BF80BD80B500AF76
S32D0000D360FEF7F1FF00BF80BD80B500AFFEF7EBFF00BF80BD80B500AFFEF7E5FF00BF80BD80B500AFFEF7DFFF8F
S32D0000D38800BF80BD80B500AFFEF7D9FF00BF80BD80B500AFFEF7D3FF00BF80BD80B500AFFEF7CDFF00BF80BD86
S32D0000D3B080B500AFFEF7C7FF00BF80BD80B500AFFEF7C1FF00BF80BD80B500AFFEF7BBFF00BF80BD80B500AFAC
S32D0000D3D8FEF7B5FF00BF80BD80B500AFFEF7AFFF00BF80BD80B500AFFEF7A9FF00BF80BD80B500AFFEF7A3FF07
S32D0000D40000BF80BD80B500AFFEF79DFF00BF80BD80B500AFFEF797FF00BF80BD80B500AFFEF791FF00BF80BDC1
S32D0000D42880B500AFFEF78BFF00BF80BD80B500AFFEF785FF00BF80BD80B500AFFEF77FFF00BF80BD80B500AFE7
S32D0000D450FEF779FF00BF80BD80B500AFFEF773FF00BF80BD80B500AFFEF76DFF00BF80BD80B500AFFEF767FF7E
S32D0000D47800BF80BD80B500AFFEF761FF00BF80BD80B500AFFEF75BFF00BF80BD80B500AFFEF755FF00BF80BDFD
S32D0000D4A080B500AFFEF74FFF00BF80BD80B500AFFEF749FF00BF80BD80B500AFFEF743FF00BF80BD80B500AF23
S32D0000D4C8FEF73DFF00BF80BD80B500AFFEF737FF00BF80BD80B500AFFEF731FF00BF80BD80B500AFFEF72BFFF6
S32D0000D4F000BF80BD80B500AFFEF725FF00BF80BD80B500AFFEF71FFF00BF80BD80B500AFFEF719FF00BF80BD39
S32D0000D51880B500AFFEF713FF00BF80BD80B500AFFEF70DFF00BF80BD80B500AFFEF707FF00BF80BD80B500AF5E
S32D0000D540FEF701FF00BF80BD80B500AFFEF7FBFE00BF80BD80B500AFFEF7F5FE00BF80BD80B500AFFEF7EFFE70
S32D0000D56800BF80BD80B500AFFEF7E9FE00BF80BD80B500AFFEF7E3FE00BF80BD80B500AFFEF7DDFE00BF80BD77
S32D0000D59080B500AFFEF7D7FE00BF80BD80B500AFFEF7D1FE00BF80BD80B500AFFEF7CBFE00BF80BD80B500AF9D
S32D0000D5B8FEF7C5FE00BF80BD80B500AFFEF7BFFE00BF80BD80B500AFFEF7B9FE00BF80BD80B500AFFEF7B3FEE9
S32D0000D5E000BF80BD80B500AFFEF7ADFE00BF80BD80B500AFFEF7A7FE00BF80BD80B500AFFEF7A1FE00BF80BDB3
S32D0000D60880B500AFFEF79BFE00BF80BD80B500AFFEF795FE00BF80BD80B500AFFEF78FFE00BF80BD80B500AFD8
S32D0000D630FEF789FE00BF80BD80B500AFFEF783FE00BF80BD80B500AFFEF77DFE00BF80BD80B584B000AFF8603E
S32D0000D6580B467A60FB72FB68FA7A1A71FB6800225A711749786807F045F90346002B02D0134B7B600AE04FF03D
S32D0000D6807E51786807F026F90346002B02D04FF07E537B60786806F0DDFA09A3D3E9002306F030FB02460B4694
S32D0000D6A81046194606F00CFE0246FB681A60FB6818461037BD4680BDABAAAAAAAAAA20400000404180B582B0ED
S32D0000D6D000AF78607B685B79002B09D07B6800225A717B6819791E230022034801F064FE00BF0837BD4680BD66
S32D0000D6F84419002080B584B000AF786039603B687F2B02DD7F23FB7308E03B6813F1800F02DA8023FB7301E0D6
S32D0000D7203B68FB737B685B79FA7B9A4209D07B68FA7B5A717B681979FA7B1E23034801F03BFE00BF1037BD461D
S32D0000D74880BD00BF44190020B0B584B000AF786039603749386807F0AFF80346002B02D0334B3B6008E0334900
S32D0000D770386807F0C3F80346002B01D02F4B3B60386806F067FA04460D467B681B68184606F060FA4FF00002F6
S32D0000D798294B06F0DDFB02460B462046294606F0ADFA02460B461046194606F089FD03463B604FF00001386888
S32D0000D7C007F092F80346002B10D0386806F042FA17A3D3E9002306F095FA02460B461046194606F029FD0346C3
S32D0000D7E8FB6018E0386806F031FA4FF00002134B06F084FA02460B46104619464FF000020D4B06F0A5FB024627
S32D0000D8100B461046194606F00FFD0346FB60F9687868FFF76BFF00BF1037BD46B0BD00BF52B81E85EB51F43F4C
S32D0000D8380000C8C20000C842000059400000604080B483B000AF03460A46FB711346BB71BB79002B03D1134BC4
S32D0000D86000221A7002E0114B01221A703823FB710E4B1A78FB791343FB710D4B9B78DBB20B4A43F01003DBB2FB
S32D0000D8889370094B9B78DBB2074A43F02003DBB29370054AFB79137100BF0C37BD4680BC704700BF20170020EF
S32D0000D8B00060064080B483B000AF01237B607B68312B04DC00BF7B6801337B60F7E700BF0C37BD4680BC7047E9
S32D0000D8D880B582B000AF03460A46FB711346BB71134B1B7800211846FFF7AAFF00F024F8104AFB79137100F025
S32D0000D9001FF80E4ABB79137100F01AF80B4B9B78DBB20A4A23F02003DBB29370074B9B78DBB2064A23F0100358
S32D0000D928DBB29370FFF7C2FF00BF0837BD4680BD211700200060064080B483B000AF174B1B78002B24D1002300
S32D0000D9507B60154BDB78DBB203F00203002B0CBF01230023DBB2002B0DD07B6842F21072934203DD0B4B0122FD
S32D0000D9781A7004E07B6801337B6000BFE5E7084BDB78DBB2064A43F00203DBB2D37000E000BF0C37BD4680BCEA
S32D0000D9A0704700BF221700200060064080B582B000AF0346FB71FB79184600F05FF800BF0837BD4680BD80B58D
S32D0000D9C882B000AF03460A46FB711346BB7100F035F8FB795B00DBB21846FFF7E3FFBB791846FFF7DFFF00F0C1
S32D0000D9F037F800BF0837BD4680BD80B500AFFF2000F03CF80346184680BD80B584B000AF0346FB7100F016F8C6
S32D0000DA18FB795B005BB243F001035BB2DBB21846FFF7C0FFFFF7E5FF0346FB7300F014F8FB7B18461037BD4675
S32D0000DA4080BDFFFF80B400AF044B9B68034A43F48013936000BFBD4680BC704740F00F4080B400AF044B5B6815
S32D0000DA68034A43F48013536000BFBD4680BC704740F00F4080B485B000AF0346FB710023BB73164BDB6A03F0DB
S32D0000DA900043012B0CBF01230023DBB2002B03D0FB7B0133FB73F0E70E4BDB6A0D4A43F00043D3620B4AFB7904
S32D0000DAB853630A4BDB6A03F40033002B0CBF01230023DBB2002B00D0F3E7044B9B6BBB73BB7B18461437BD46C2
S32D0000DAE080BC704700C00A4080B582B000AF204B03F580531B6B1E4A43F4805302F5805213631C4B4FF48072FC
S32D0000DB081A651B4B5B691A4A43F480135361FFF7A3FF164B4FF400725A65144B4FF400729A65124B4FF40072D2
S32D0000DB30DA65124B124A1A60104B124ADA6000237B607B68092B06DCFF20FFF72FFF7B6801337B60F5E704A1B7
S32D0000DB58D1E9000101F0BAFC00BF0837BD4680BD9A9999999999B93F0070044000A0044040F00F4000C00A404F
S32D0000DB80000C00800500003E90B486B000AFF860B9607A60FB68534A93420AD1524B03F580535B6B504A43F485
S32D0000DBA8806302F58052536345E0FB684D4A93420AD14B4B03F580535B6B494A43F4006302F58052536336E035
S32D0000DBD0FB68474A93420AD1434B03F580535B6B414A43F4805302F58052536327E0FB68404A93420AD13C4B25
S32D0000DBF803F580535B6B3A4A43F4005302F58052536318E0FB683A4A93420AD1344B03F580539B6A324A43F450
S32D0000DC20806302F58052936209E02F4B03F580539B6A2D4A43F4006302F580529362FB68DB78DBB223F00C03CE
S32D0000DC48DAB2FB68DA70FB6800229A70BB684FF47A7203FB02F27B681B0192FBF3F39CB2FB681B78DBB223F04C
S32D0000DC701F03FB75230A9BB2DBB203F01F03DAB2FB7D1343DAB2FB681A70E2B2FB685A70BB684FF4FA4203FBA4
S32D0000DC9802F27B681B0192FBF3F39AB263019BB2D31A9CB2FB689B7ADBB223F01F03FB75E3B203F01F03DAB2E0
S32D0000DCC0FB7D1343DAB2FB689A72FB68DB78DBB243F00C03DAB2FB68DA7000BF1837BD4690BC704700A00640B5
S32D0000DCE80070044000B0064000C0064000D0064000A00E4080B483B000AF78607B681B79DBB203F02003002B27
S32D0000DD100CBF01230023DBB2002B00D0F2E77B68DB79DBB218460C37BD4680BC704780B483B000AF78600B46D8
S32D0000DD38FB707B681B79DBB25BB2DB43DBB2DB09DBB2002B00D0F4E77B68FA78DA7100BF0C37BD4680BC7047B7
S32D0000DD6080B487B000AFF860B9607A60FB687B617B685A1E7A60002B14BF01230023DBB2002B06D07B695A1C8F
S32D0000DD887A61BA68D2B21A70EEE700BF1C37BD4680BC704780B584B000AF786039607B681B6BFB60FA683B6833
S32D0000DDB09A4252D07B681B79002B35D07B6858787B6803F134010123FA6801F0F7F80346002B14BF01230023ED
S32D0000DDD8DBB2002B01D001233CE07B6800221A717B685A6A7B681B6A1344FA689A4217D27B68DB78FB72FB7A1F
S32D0000DE00012B11D97B681B6AFA681344FB607B6858787B6803F134010123FA6801F0CEF8FB7A013BFB72EAE777
S32D0000DE283B68002B15D07B6858787B6803F1340101233A6800F0DAFF0346002B14BF01230023DBB2002B01D0B4
S32D0000DE50012303E07B683A681A63002318461037BD4680BD80B584B000AF786000217868FFF794FF0346FB7362
S32D0000DE78FB7B002B40F093807B681B78032B7DD17B685B79002B79D07B6800221A637B6834334FF400720021D9
S32D0000DEA01846FFF75DFF7B68552283F832227B68AA2283F833227B68522283F834207B68522283F835207B68CC
S32D0000DEC8612283F836207B68412283F837207B68722283F818227B68722283F819227B68412283F81A227B6887
S32D0000DEF0612283F81B227B681B69DAB27B6883F81C227B681B699BB21B0A9BB2DAB27B6883F81D227B681B6984
S32D0000DF181B0CDAB27B6883F81E227B681B691B0EDAB27B6883F81F227B68DB68DAB27B6883F820227B68DB6857
S32D0000DF409BB21B0A9BB2DAB27B6883F821227B68DB681B0CDAB27B6883F822227B68DB681B0EDAB27B6883F813
S32D0000DF6823227B6858787B6803F134017B685A69012301F01FF87B6800225A717B685B7800220021184601F09D
S32D0000DF90E1F80346002B14BF01230023DBB2002B01D00123FB73FB7B18461037BD4680BD80B582B000AF786098
S32D0000DFB80B467B807B68002B08D07B681B78002B04D07B68DB887A889A4201D0092311E07B685B78184601F07D
S32D0000DFE03BF9034603F00103002B14BF01230023DBB2002B01D0032300E0002318460837BD4680BD80B586B060
S32D0000E00800AF78607B681A687B689B8819461046FFF7CAFF0346FB75FB7D002B40F0AC807B689B7903F02003BF
S32D0000E030002B00F0A5807B689B7903F04003002B1BD07B681B6858787B6803F128017B689A69012300F0B2FF5E
S32D0000E0580346002B14BF01230023DBB2002B01D001238AE07B689B7923F04003DAB27B689A717B681A687B68E6
S32D0000E080DB6919461046FFF789FE0346FB75FB7D002B75D17B681B6A3B613B690B331A783B690B3342F02002AC
S32D0000E0A8D2B21A707B68DA683B691C33D2B21A707B68DB689BB21B0A9AB23B691D33D2B21A707B68DB681A0CE4
S32D0000E0D03B691E33D2B21A707B68DB681A0E3B691F33D2B21A707B681A693B691A33D2B21A707B681B699BB2B4
S32D0000E0F81B0A9AB23B691B33D2B21A707B681B691A0C3B691433D2B21A707B681B691B0C9BB21B0A9AB23B6913
S32D0000E1201533D2B21A700023FB603B691633FA68D2B21A70FB689BB21B0A9AB23B691733D2B21A70FB681A0CFA
S32D0000E1483B691833D2B21A70FB681A0E3B691933D2B21A707B689B7923F02003DAB27B689A717B681B680122F3
S32D0000E1701A717B681B681846FFF774FE0346FB75FB7D18461837BD4680BD80B584B000AF78607868FFF736FFB1
S32D0000E1980346FB73FB7B002B02D17B6800221A60FB7B18461037BD4680BDFFFF80B588B000AF78603960802326
S32D0000E1C03B610F23FB604FF0FF337B610223FB61FB69B3F5807F23D80123BB61BB69102B1AD8FB69BA6902FB1F
S32D0000E1E803F33A6803FB02F27B68D31ABB60BB68002B09DBBB687A699A4205D9BB687B61FB693B61BB69FB6024
S32D0000E210BB690133BB61E1E7FB695B00FB61D7E71D4BDB6A1C4A23F00803D3621A4BDB6A23F47F2323F47F6309
S32D0000E238BB613B695B081B029AB2FB68013B1B01DBB21A43BB691343114A43F46023D3620F4B5B6A03F00803A6
S32D0000E260002B0CBF01230023DBB2002B03D00A2001F01AF9F0E7084BDB6A074A43F00803D362054B1B6B044A43
S32D0000E28843F48013136300BF2037BD4680BD00BF00100B4080B582B000AF786039607B6800221A60414B424A9A
S32D0000E2B0DA62404BDB6A03F08073002B14BF01230023DBB2002B00D0F3E73A4B0022C3F8C020384B4FF48132EC
S32D0000E2D85A60364B28229A62344B4FF001125A643B689B6833491846FFF760FF2F4B5B6A03F00303002B14BFFD
S32D0000E30001230023DBB2002B00D0F3E72C4B40F243421A602A4B40F243425A60284B4FF488629A60264B40F27B
S32D0000E3284342DA60244B40F243421A61224B40F243425A61214B03F580531B6B1F4A43F4003302F580521363B9
S32D0000E350184B4FF6FF721A63164B1B4A5A63154BDB6A144A43F00063D362124BDB6A03F00063002B14BF01239E
S32D0000E3780023DBB2002B00D0F3E70C4B5B6A03F48033002B14BF01230023DBB2002B02D07B6801221A60054B8D
S32D0000E3A01B6B044A43F080031363002318460837BD4680BD00100B400080000160CC050000D00440007004407A
S32D0000E3C8B3007F0080B400AF064B5A6A40F207331340002B14BF01230023DBB21846BD4680BC704700100B40BD
S32D0000E3F080B485B000AF7860074B1B6B7A681340FB60FB68002B00D1F6E7FB6818461437BD4680BC704700BFAA
S32D0000E41800100B4080B584B000AF78607B681B7803F03F03764A52F82330FB60FB68002B05D17B681B78002B23
S32D0000E44001D00123DCE0714B1B6B704A43F0800313636E4B5B6A03F00103002B14BF01230023DBB2002B00D093
S32D0000E468F3E7684A7B685B689360FB6823F44003FB607B685B789B0503F44003FA681343FB607B685B78022BC3
S32D0000E49003D1FB6843F40013FB607B685B78042B16D1FB6803F44033B3F5003F08D1FB6823F44033FB60FB687E
S32D0000E4B843F44033FB6007E0FB6823F44033FB60FB6843F40033FB604E4B5B684D4A9BB253607B68DB68002B96
S32D0000E4E02AD0FB6803F44033B3F5403F03D0FB6843F40013FB607B681B7A002B03D0FB6843F01003FB607B68E8
S32D0000E508DB68012B03D9FB6843F02003FB607B68DB68B3F1FF3F0BD03A4B5A687B68DB681B04384913434B6095
S32D0000E530FB6843F00203FB60344B00221A60334AFB68D3603248FFF753FF0346012B14BF01230023DBB2002B90
S32D0000E55809D02C4B1B6B2B4A43F4702343F001031363012348E0274B1B6B03F08003002B14BF01230023DBB247
S32D0000E580002B07D0214B1B6B204A43F001131363012335E01D4B1B6B03F48033002B14BF01230023DBB2002B84
S32D0000E5A808D0184B1B6B174A43F0011313634FF0FF3321E0FB6803F44033002B15D0114B1A697B681A61FB6877
S32D0000E5D003F44033B3F5803F0BD10C4B5A697B685A610A4B9A697B689A61084BDA697B68DA61064B1B6B054AA8
S32D0000E5F843F001031363002318461037BD4680BD84AF010000100B4001000E0080B592B000AF786039600023E8
S32D0000E6207B643B68BB63994B7B637B6B002B02D140F601235FE3964B3B633B6B002B02D140F60B2357E33B6B83
S32D0000E6481B68FB62FB6A002B02D140F60B234EE37B6841F20932934200F23F837B68B3F5985F08D87B68032B7F
S32D0000E67000F01A837B68092B00F0098331E37B68A3F59853013B082B00F22B8301A252F823F000BFB9E6000075
S32D0000E698A5E9000001EC0000BBE90000F9E900001FEB000067EB0000A9EA0000C3EA00007649786BFFF7EEFD34
S32D0000E6C078647B6C002B40F01083002387F84330002387F82B30002387F82A30002387F82930002387F842305E
S32D0000E6E8002387F8283000233B7200237B720023FB6000233B7400237B6107F108031846FFF788FE0346002B8A
S32D0000E71014BF01230023DBB2002B02D001237B64E8E240F24C4000F0BFFE08233B7200237B724FF4D573FB6031
S32D0000E73800233B7400237B6107F108031846FFF769FEF863FB6B002B09D1BA69FB689A4202D001237B64C9E27C
S32D0000E760012387F84230012387F8283097F82830002B00F0A58037233B7200237B720023FB6000233B740023CA
S32D0000E7887B6107F108031846FFF744FEF863FB6B002B02D001237B64A8E269233B7200237B720023FB600023B9
S32D0000E7B03B7400237B6107F108031846FFF72EFE0346002B14BF01230023DBB2002B02D001237B648EE2BB695B
S32D0000E7D803F44013002B6FD00023FB630A2000F05FFEFB6B0133FB6337233B7200237B720023FB6000233B7408
S32D0000E80000237B6107F108031846FFF707FE0346002B14BF01230023DBB2002B02D001237B6428E069233B7233
S32D0000E82800237B7297F84230002B02D0184BFB6002E04FF44013FB6000233B7400237B6107F108031846FFF7FB
S32D0000E850E5FD0346002B14BF01230023DBB2002B02D001237B6406E0BB69002B03DBFB6B632B00D8B6E77B6C3A
S32D0000E878002B40F03882FB6B632B0BD9002387F8423019E0381700203C19002078AF010000003040012387F859
S32D0000E8A0433097F84230002B0AD0002387F84230BB6903F08043002B02D0012387F8423097F82A30002B02D0EB
S32D0000E8C87B6B07221A6097F82930002B02D07B6B08221A6097F82B30002B02D07B6B04221A6097F84330002B90
S32D0000E8F009D07B6B02221A6097F84230002B02D07B6B03221A6097F82B30002B0DD097F84330002B09D07B6B3C
S32D0000E91805221A6097F84230002B02D07B6B06221A60924B00221A60904B00225A608F4B00229A608D4B00228A
S32D0000E940DA608C4B00221A618A4B00225A61FB6A9A68FB6A5B6819461046FFF72BFC854B40F243421A60834B19
S32D0000E96840F243425A60814B4FF488629A607F4B40F24342DA607D4B40F243421A617B4B40F243425A617A4B6B
S32D0000E99003F580531B6B784A43F4003302F580521363A7E1B86BFFF739FDF863FB6B002B00F09F8102237B64C6
S32D0000E9B89BE1BB6B002B02D10C237B6496E16D4BDB6A1B0A5B0003F4FF73FB63694BDB6A1B0903F00F035A1C30
S32D0000E9E0FB6B02FB03F3FB63FB6A9A68FB6BB2FBF3F2BB6B1A607DE1BB6B002B02D10C237B6477E1BB6B1B68C2
S32D0000EA08002B02D10C237B6470E1FFF7DBFC0346002B0CBF01230023DBB2002B3CD0534B00221A60514B002274
S32D0000EA305A60504B00229A604E4B0022DA604D4B00221A614B4B00225A61FB6A9A68BB6B1B6819461046FFF7EF
S32D0000EA58ADFB464B40F243421A60444B40F243425A60424B4FF488629A60404B40F24342DA603E4B40F24342B6
S32D0000EA801A613C4B40F243425A613B4B03F580531B6B394A43F4003302F58052136329E140F60A237B6425E19F
S32D0000EAA8BB6B002B02D10C237B641FE1314B5B68C3F30C02BB6B1A6018E1BB6B002B02D10C237B6412E1FFF757
S32D0000EAD07DFC0346002B0CBF01230023DBB2002B19D0BB6B1B68B3F5805F02D30C237B6400E1224B5B68214AE9
S32D0000EAF823F4FF5323F01F0353601E4B5A68BB6B1B68C3F30C031B4913434B60EEE040F60A237B64EAE0BB6BA1
S32D0000EB20002B02D10C237B64E4E0144B9B6A5B0803F00303FB63FB6B002B03D1BB6B00221A60D7E0FB6B012B69
S32D0000EB4803D1BB6B01221A60D0E0FB6B102B03D1BB6B02221A60C9E005237B64C6E0BB6B002B09D10C237B6490
S32D0000EB70C0E000BF00D004400070044000100B40FFF724FC0346002B0CBF01230023DBB2002B31D0BB6B1B68F7
S32D0000EB98002B0AD1584B9B6A574A23F006039362554B554A9B6A9362A0E0BB6B1B68012B0CD1514B9B6A504A49
S32D0000EBC023F0060393624E4B9B6A4D4A43F0020393628FE0BB6B1B68022B0AD1484B9B6A474A23F0060393625A
S32D0000EBE8454B454A9B6A936280E005237B647DE040F60A237B6479E0BB6B002B02D10C237B6473E03C4BDB6A36
S32D0000EC103B4A43F00063D362394BDB6A03F00063002B14BF01230023DBB2002B00D0F3E7334B1B6B03F0800346
S32D0000EC38002B14BF01230023DBB2002B08D02E4B1B6B2D4A43F0800313637B6B00221A60294B5B6A03F48033D2
S32D0000EC60002B14BF01230023DBB2002B07D07B6B1B68002B06D17B6B01221A6002E07B6B00221A607B6B1A68F8
S32D0000EC88BB6B1A6032E0BB6B1C221A60BB6B043304221A60BB6B08334FF41E721A6025E00220FFF7A1FB144B0B
S32D0000ECB01B6B03F4E003002B14BF01230023DBB2002B07D00E4B1B6B0D4A43F4E003136304237B640A4B1B6B5B
S32D0000ECD8094A43F03203136308E040F609237B6404E000BF02E000BF00E000BF7B6C18464837BD4680BD00BF0E
S32D0000ED0000100B4080B489B000AF786039607B687B61364B3B613B69002B01D100235FE03B691B68022B0BD0EF
S32D0000ED283B691B68032B07D03B691B68072B03D03B691B68082B0BD12B4B5B6A03F00403002B14BF01230023B5
S32D0000ED50DBB2002B00D0F3E73B68FB61FB69002B3DD0FB69B3F5007F28BF4FF40073FB60FB6803339B08BB61BD
S32D0000ED78BB69002B2AD01C4B1B6B03F4E003002B14BF01230023DBB2002B09D0164B1B6B154A43F4E00343F0F4
S32D0000EDA02003136300231BE0114B5B6A03F40063002B0CBF01230023DBB2002B00D0F3E70B497B691A1D7A612A
S32D0000EDC80A6A1A60BB69013BBB61D1E7FA69FB68D31AFB61BEE7012318462437BD4680BC704700BF3817002046
S32D0000EDF000100B4080B58EB000AFB9607A601A460346FB731346BB73414B7B63FB7B002B02D1BB7B002B01D1D6
S32D0000EE18042375E03D4B1B78DBB203F00103002B14BF01230023DBB2002B01D0032367E0BB68002B01D1002333
S32D0000EE4062E07B6B1B7B002B02D17B685B027B60BB7B012B28D111233B7500237B757B68BB6101233B77BB7B70
S32D0000EE683B6207F11403194641F20230FFF7CEFB0346002B0CBF01230023DBB2002B38D04FF40071B868FFF73D
S32D0000EE9039FF0346002B14BF01230023DBB2002B2BD00023BB7328E012233B7500237B757B68BB6101233B77B5
S32D0000EEB8BB7B3B6207F11403194641F20230FFF7A5FB0346002B0CBF01230023DBB2002B0FD0BB7B5B021946E1
S32D0000EEE0B868FFF70FFF0346002B14BF01230023DBB2002B01D00023BB73BB7B002B01D0012300E0002300BF60
S32D0000EF0818463837BD4680BD241700200000002080B487B000AF786039607B68FB603B687B617B69002B3DD0EF
S32D0000EF307B69B3F5007F28BF4FF400733B617A693B69D31A7B613B6903339B083B613B69002BEAD0184B1B6B94
S32D0000EF5803F4E003002B14BF01230023DBB2002B0AD0134B1B6B124A43F4E00343F0100313634FF0FF3316E05D
S32D0000EF800D4B5B6A03F48063002B0CBF01230023DBB2002B00D0F3E7FB681A1DFA60064A1B6813623B69013BB1
S32D0000EFA83B61D0E7012318461C37BD4680BC704700100B4080B58EB000AFB9607A601A460346FB731346BB730F
S32D0000EFD05D4B7B63FB7B002B02D1BB7B002B01D10423ADE0594B1B78DBB203F00103002B14BF01230023DBB2A5
S32D0000EFF8002B01D003239FE0524B1B78DBB203F00403002B14BF01230023DBB2002B01D0022391E0BB68002BE1
S32D0000F02001D100238CE07B6B1B7B002B02D17B685B027B60BB7B012B28D118233B7500237B757B68BB61002351
S32D0000F0483B77BB7B3B6207F11403194641F20230FFF7DCFA0346002B0CBF01230023DBB2002B38D04FF400717C
S32D0000F070B868FFF751FF0346002B14BF01230023DBB2002B2BD00023BB7328E019233B7500237B757B68BB6174
S32D0000F09800233B77BB7B3B6207F11403194641F20230FFF7B3FA0346002B0CBF01230023DBB2002B0FD0BB7BD9
S32D0000F0C05B021946B868FFF727FF0346002B14BF01230023DBB2002B01D00023BB730D233B7500237B757B6BE9
S32D0000F0E81B69BB6100233B7700233B6207F11403194641F20230FFF789FA0346002B14BF01230023DBB2002B33
S32D0000F11001D0012314E07A6A0D4B1340002B01D001230DE07B6A03F4F853B3F5106F00D0D5E7BB7B002B01D040
S32D0000F138012300E0002300BF18463837BD4680BD24170020000000200880D9FF80B58CB000AF03463A60FB716C
S32D0000F1600B46BB713A4BBB62FB79002B01D0042369E0012387F82F30364B1B78DBB203F00103002B14BF0123C6
S32D0000F1880023DBB2002B01D0032358E0BB79032B50D801A252F823F0B1F10000B9F10000C9F10000D9F10000F5
S32D0000F1B0002387F82F3044E0BB6A9A683B681A60002387F82F303CE03B684FF400721A80002387F82F3034E0A4
S32D0000F1D809233B7200237B72BB6A1B69FB6000233B7400237B6107F10803194641F20230FFF70CFA0346002B14
S32D0000F20014BF01230023DBB2002B01D001231AE07B6A03F44003002B0CD13B6A9B0C03F07F035A1C7B6A1B0AB7
S32D0000F22803F00303013B9A403B681A60002387F82F3002E0042387F82F3097F82F3018463037BD4680BD00BFF2
S32D0000F250241700200000002080B483B000AF0346FB71FB79002B01D0012302E0034B1B78DBB218460C37BD46C2
S32D0000F27880BC70470000002080B483B000AF7860164B03F580539B6B144A43F0010302F580529363124A7B68A2
S32D0000F2A09360114B05225A600F4B1B680E4A43F0010313600C4B1B6803F08003002B0CBF01230023DBB2002BEC
S32D0000F2C800D0F3E7064B1B68054A23F00103136000BF0C37BD4680BC704700BF007004400000044080B582B0AB
S32D0000F2F000AF786039607B68012B07D13B684FF6FF72934202D1034800F00EF800BF0837BD4680BD44190020EC
S32D0000F31880B500AF4FF6FF710120FFF7E3FF80BD80B483B000AF78607B6800221A707B6818460C37BD4680BCB8
S32D0000F3407047FFFF80B582B000AF78607B681B7883F00103DBB2002B21D0134B03F580531A464FF40063936242
S32D0000F368104B4FF440721A620E4B4FF440725A620D4B1B68DA0F13445B104FF4614219460A48FEF7FDFB642013
S32D0000F39000F08AF87B6801221A70012300E0002318460837BD4680BD0070044000D004404819002000B00E4002
S32D0000F3B880B582B000AF7860084611461A460346FB700B46BB7013467B707F210E48FEF7AAFC08210C48FEF7BD
S32D0000F3E0A6FCFB7819460A48FEF7A1FCBB7819460748FEF79CFC7B7819460548FEF797FCFF210348FEF793FC23
S32D0000F40800BF0837BD4680BD00B00E4080B487B000AFF860B9607A60FB681F4AA2FB03239B09BA6813447B61AD
S32D0000F430FB681B4AA2FB031292094FF47A7101FB02F29B1AFB60FB68DB03154AA2FB03239B097A6813443B618F
S32D0000F4583B69DB0B7A6913447B613B69C3F30E033B610E4B1B687A699A4209D80B4B1B687A699A4206D1094BA0
S32D0000F4805B683A699A4201D9012300E00023002B00D0EAE700BF1C37BD4680BC704700BFD34D621000D00340E3
S32D0000F4A880B584B000AF7860074B1B68FB60064B5B68BB607B68BA68F9681846FFF7A6FF00BF1037BD4680BD42
S32D0000F4D000D0034080B584B000AFC7E900010E4B1B68FB600C4B5B68BB604FF000020B4BD7E9000104F006FC78
S32D0000F4F802460B461046194604F0C2FE0346BA68F9681846FFF782FF00BF1037BD4680BD00D0034000408F40DB
S32D0000F52080B483B000AF0B4B1B684FF47A7202FB03F37B60074B5B684FF47A7202FB03F3DB0B7A6813447B60A0
S32D0000F5487B6818460C37BD4680BC704700D0034080B582B000AF78600B46FB70FB781946786800F005F87B68DC
S32D0000F57018460837BD4680BD80B483B000AF78600B46FB707B68FA781A707B681B781A46534B9B5C042B00F27B
S32D0000F5989E8001A252F823F0B5F50000EFF5000029F6000063F600009DF600004B4A7B681B7819464A4B53F844
S32D0000F5C0213040F2031142F82310484B5A697B681B781946444B53F8213003F01F03012101FA03F3DB434149F3
S32D0000F5E813404B6173E0404A7B681B7819463C4B53F8213040F2031142F823103B4B5A697B681B781946364BCF
S32D0000F61053F8213003F01F03012101FA03F3DB43344913404B6156E0334A7B681B7819462D4B53F8213040F2A0
S32D0000F638031142F823102F4B5A697B681B781946274B53F8213003F01F03012101FA03F3DB43284913404B614D
S32D0000F66039E0274A7B681B7819461F4B53F8213040F2031142F82310224B5A697B681B781946194B53F821305F
S32D0000F68803F01F03012101FA03F3DB431B4913404B611CE01A4A7B681B781946104B53F8213040F2031142F8FF
S32D0000F6B02310164B5A697B681B7819460A4B53F8213003F01F03012101FA03F3DB430F4913404B6100BF00BFF4
S32D0000F6D80C37BD4680BC704784B0010000900440C8B0010000F00F4000A0044040F00F4000B0044080F00F40F4
S32D0000F70000C00440C0F00F4000D0044000F10F4080B485B000AF78600023FB607B681B781A46364B9B5C042B99
S32D0000F7285CD801A252F823F045F7000065F7000085F70000A5F70000C5F700002E4B1B697A68127811462D4ADC
S32D0000F75052F8212002F01F02012101FA02F21340FB603FE0284B1B697A6812781146254A52F8212002F01F0248
S32D0000F778012101FA02F21340FB602FE0214B1B697A68127811461D4A52F8212002F01F02012101FA02F2134079
S32D0000F7A0FB601FE01A4B1B697A6812781146154A52F8212002F01F02012101FA02F21340FB600FE0134B1B69A8
S32D0000F7C87A68127811460D4A52F8212002F01F02012101FA02F21340FB6000BFFB68002B14BF01230023DBB2A8
S32D0000F7F018461437BD4680BC704700BF84B0010000F00F40C8B0010040F00F4080F00F40C0F00F4000F10F4023
S32D0000F81880B584B000AF78600B46FB700B23FB73FA7BFB781946786800F094F87B6818461037BD4680BDFFFF11
S32D0000F84080B485B000AF78607B68103B002B00DA1F335B11FB60FB68022B53D0FB68022B75DCFB68002B03D069
S32D0000F868FB68012B25D06EE0394BD3F880217B68103B594203F01F0301F01F0158BF4B42012101FA03F332498F
S32D0000F8901343C1F88031304B1A687B68103B594203F01F0301F01F0158BF4B42012101FA03F3294913430B60B4
S32D0000F8B849E0274BD3F884217B68103B594203F01F0301F01F0158BF4B42012101FA03F31F491343C1F8843145
S32D0000F8E01D4B5A687B68103B594203F01F0301F01F0158BF4B42012101FA03F3164913434B6024E0144BD3F89C
S32D0000F90888217B68103B594203F01F0301F01F0158BF4B42012101FA03F30D491343C1F888310B4B9A687B6829
S32D0000F930103B594203F01F0301F01F0158BF4B42012101FA03F3044913438B6000BF00BF1437BD4680BC704799
S32D0000F95800E100E080B584B000AF78600B46FB701346BB707B68FA781A70BB78FB737B681B781A46574B9B5CA1
S32D0000F980042B00F2A68001A252F823F0A1F90000EDF9000039FA0000D1FA000085FA0000FB7B1B0403F47023F6
S32D0000F9A84D497A68127810464C4A52F8202043F4897343F0010341F82230494B5A697B681B781946454B53F8BD
S32D0000F9D0213003F01F03012101FA03F3DB43424913404B616720FFF72BFF72E0FB7B1B0403F470233D497A6868
S32D0000F9F812781046394A52F8202043F4897343F0010341F82230384B5A697B681B781946324B53F8213003F0D8
S32D0000FA201F03012101FA03F3DB43314913404B616820FFF705FF4CE0FB7B1B0403F470232C497A6812781046E8
S32D0000FA48264A52F8202043F4897343F0010341F82230274B5A697B681B7819461F4B53F8213003F01F0301215A
S32D0000FA7001FA03F3DB43204913404B616920FFF7DFFE26E0FB7B1B0403F470231B497A6812781046134A52F8A3
S32D0000FA98202043F4897343F0010341F82230164B5A697B681B7819460C4B53F8213003F01F03012101FA03F3F7
S32D0000FAC0DB430F4913404B616B20FFF7B9FE00E000BF00BF1037BD4680BD00BF84B0010000900440C8B0010045
S32D0000FAE800F00F4000A0044040F00F4000B0044080F00F4000D0044000F10F40B0B48BB000AF234B3C1D1D46CF
S32D0000FB100FCD0FC495E80F0084E80F0000237B627B6A072B32DC1D4BD3F8A0207B6A9B0007F128010B4453F8BE
S32D0000FB38243C012101FA03F31340002B14BF01230023DBB2002B19D0134A7B6A52F823305A1C11497B6A41F826
S32D0000FB6023200E4BD3F8A0207B6A9B0007F128010B4453F8243C012101FA03F307491340C1F8A0307B6A01335D
S32D0000FB887B62C9E700BF2C37BD46B0BC704700BFCCB1010000A0044074190020B0B489B000AF234B3C1D1D4636
S32D0000FBB00FCD0FC495E8030084E803000023FB61FB69052B32DC1D4BD3F8A020FB699B0007F120010B4453F8C3
S32D0000FBD81C3C012101FA03F31340002B14BF01230023DBB2002B19D0FB690833124A52F823200132104941F80E
S32D0000FC0023200E4BD3F8A020FB699B0007F120010B4453F81C3C012101FA03F307491340C1F8A030FB690133CE
S32D0000FC28FB61C9E700BF2437BD46B0BC704700BFECB1010000B0044074190020B0B48DB000AF244B3C461D46C0
S32D0000FC500FCD0FC40FCD0FC495E8070084E807000023FB62FB6A0A2B32DC1D4BD3F8A020FB6A9B0007F13001ED
S32D0000FC780B4453F8303C012101FA03F31340002B14BF01230023DBB2002B19D0FB6A0E33124A52F8232001324A
S32D0000FCA0104941F823200E4BD3F8A020FB6A9B0007F130010B4453F8303C012101FA03F307491340C1F8A0300F
S32D0000FCC8FB6A0133FB62C9E700BF3437BD46B0BC704700BF04B201000090044074190020B0B487B000AF224B6A
S32D0000FCF03C461D460FCD0FC42B68236000237B617B69042B32DC1D4BD3F8A0207B699B0007F118010B4453F8FF
S32D0000FD18183C012101FA03F31340002B14BF01230023DBB2002B19D07B691933124A52F823200132104941F83F
S32D0000FD4023200E4BD3F8A0207B699B0007F118010B4453F8183C012101FA03F307491340C1F8A0307B69013399
S32D0000FD687B61C9E700BF1C37BD46B0BC704700BF30B2010000D004407419002080B483B000AF78607B681B78E2
S32D0000FD901A46044B53F8223018460C37BD4680BC704700BF7419002080B483B000AF78607B681B781946044BE4
S32D0000FDB8002243F8212000BF0C37BD4680BC70477419002080B483B000AF78600B46FB707B68FA781A707B686E
S32D0000FDE018460C37BD4680BC7047FFFFFFFFFFFF80B586B000AF78607B681B781A463E4B53F822303B617B68F7
S32D0000FE081B781A463B4B9B5CFB733B69DBB203F01F03DAB2384B1A723B69DBB203F01F03DAB2354B5A72354B6F
S32D0000FE301022C3F88820FB7B002B13D13049324800F05AFA304B1B6803F08003802B14BF01230023DBB2002B62
S32D0000FE5800D0F3E72A4B1B697B6112E02649294800F046FA274B1B6803F08003802B14BF01230023DBB2002B13
S32D0000FE8000D0F3E7214B1B697B611E4BD3F888311C4A43F01003C2F888311A4B9B68194A43F0100393607B69EA
S32D0000FEA89BB2184603F0B0FE0DA3D3E9002303F025FF02460B46104619460BA3D3E9002304F046F802460B4694
S32D0000FED01046194604F0F8F90346BB60BB6818461837BD4680BD00BFA4703D0AD7A30A4000000000E0FFEF400A
S32D0000FEF848B10100A4B001005419002000E100E000B0034000B00B4080B586B000AF78607B681B781A46234B1B
S32D0000FF2053F822303B617B681B781A46204B9B5CFB733B69DBB203F01F03DAB21D4B1A723B69DBB203F01F03C8
S32D0000FF48DAB21A4B5A72FB7B002B13D11749184800F0CEF9164B1B6803F08003802B14BF01230023DBB2002BFB
S32D0000FF7000D0F3E7104B1B697B6112E00D490F4800F0BAF90D4B1B6803F08003802B14BF01230023DBB2002BEE
S32D0000FF9800D0F3E7074B1B697B617B6918461837BD4680BD48B10100A4B001006419002000B0034000B00B4034
S32D0000FFC098B500AF204B5C221A701F4B10225A701D4B41F234225A801B4B45F278629A80194B10229A71184BDE
S32D0000FFE80722DA71164B4FF4C022DA60144B1F221A72134B1F225A721149124800F078F90F49114800F074F9FD
S32D000100100F4800F0D2F80D4800F0CFF80A490C4800F06AF90849094800F066F9094A064B14460FCB84E80F0066
S32D00010038064B5C221A70054B0422DA7100BF98BD5419002000B0034000B00B406419002080B500AF064B1B689B
S32D000100600133054A136000F03DF8044B0122C3F80C2100BF80BD00BFF81900200070034080B500AF0C4B0122FF
S32D000100881A600C4800F01AF8094B0322C3F80821094BD3F88831084A43F01003C2F88831054B9B68044A43F065
S32D000100B01003936000BF80BD00700340A086010000E100E080B483B000AF7860044A7B68C2F8003100BF0C3778
S32D000100D8BD4680BC704700BF0070034080B584B000AF174B1B68FB60FB68002B24D0FB685B78FB71FB689B68AF
S32D00010100184600F023F80346BB71BB79002B13D0FB685B68012B0FDDFB689B681B69BB60BB68002B08D0BB6824
S32D000101285B685A1CBB685A60BB681B69BB60F3E7FB68DB68FB60D7E700BF1037BD4680BDF419002080B584B05B
S32D0001015000AF78607868FFF7DBFEF8607B689B695B78FB72FB7A002B0FD17B68DB68FA689A420ADD7B689B6919
S32D0001017801225A707B685B685A1C7B685A60012313E0FB7A012B0FD17B689B68FA689A420ADA7B689B69002209
S32D000101A05A707B685B685A1C7B685A60012300E0002318461037BD4680BD80B485B000AF78607B681B6A23F036
S32D000101C840027B681A627B685B6A23F00B027B685A627B685B6A43F007027B685A627B685B6A43F080027B683D
S32D000101F05A627B681B6803F08003002B0CBF01230023DBB2002B00D0F3E77B685B6A03F04003402B0CBF012371
S32D000102180023DBB2002B01D0012364E00023FB817B68DB6CFB817B689B6C9AB2FB891344FB817B685B6C9AB2DB
S32D00010240FB891344FB817B681B6C9AB2FB891344FB817B68DB6B9AB2FB891344FB817B689B6B9AB2FB8913444F
S32D00010268FB81FB895B08FB81FB896FEA43436FEA5343FB81FA897B68DA620023FB817B68DB6EFB817B689B6EE5
S32D000102909AB2FB891344FB817B685B6E9AB2FB891344FB817B681B6E9AB2FB891344FB817B68DB6D9AB2FB8943
S32D000102B81344FB817B689B6D9AB2FB891344FB81FB895B08FB81FB896FEA43436FEA5343FB81FA897B681A63A2
S32D000102E07B685B6A23F080027B685A62002318461437BD4680BC704780B483B000AF786039603B681B781A4634
S32D000103087B689A603B685B781A467B68DA603B685B881A467B689A613B689B881A467B68DA613B689B791A46D7
S32D000103307B681A623B68DB791A467B685A623B68DA687B681A653B681B7A1A467B681A603B685B7A1A467B6852
S32D000103585A6000BF0C37BD4680BC704780B483B000AF78607B6818460C37BD4680BC704780B582B000AF78606E
S32D0001038039607B68012B07D13B684FF6FF72934202D10348FFF7E6FF00BF0837BD4680BDFC19002080B500AF50
S32D000103A84FF6FF710120FFF7E3FF80BD80B483B000AF78600B46FB707B68FA781A707B684FF4FA725A807B6863
S32D000103D040F6C4129A807B68034A9A607B6818460C37BD4680BC7047000080BF80B483B000AF786039603B68CB
S32D000103F8B3F5FA7F04DB3B6840F6C412934204DD7B684FF4FA725A8004E03B689AB27B685A8000BF00BF0C37B4
S32D00010420BD4680BC704780B483B000AF786039603B68B3F5FA7F04DB3B6840F6C412934204DD7B6840F6C41239
S32D000104489A8004E03B689AB27B689A8000BF00BF0C37BD4680BC70472DE9904385B000AF786039604FF0000166
S32D00010470386804F025FA0346002B02D04FF000033B603249386804F039FA0346002B01D02E4B3B607B689B6806
S32D000104981946386804F006FA0346002B00D04BE07B683A689A607B685C887B689B881A467B685B88D31A184616
S32D000104C003F0B6FB4FF00002214B03F045FD02460B4690469946386803F0BCFB02460B464046494603F00EFC44
S32D000104E802460B461046194603F0CAFE03469BB22344FB81FB897B73FB891B0A9BB23B737F211248FDF70FFC54
S32D0001051005211048FDF70BFC7B681B7819460D48FDF705FC3B7B19460A48FDF700FC7B7B19460848FDF7FBFB3E
S32D00010538FF210648FDF7F7FB00BF1437BD46BDE8908300BF000034430080664000B00E4080B582B000AF786033
S32D00010560B84B4FF48072DA60B74B4FF480729A64B54B4FF480721A64B34B4FF480725A64B14B4FF48072DA60B6
S32D00010588B04B5B69AF4A43F008035361AE4B5B69AD4A43F480235361AB4B5B69AA4A43F480335361A84B5B6955
S32D000105B0A74A43F400335361A54B1B68A44A43F008031360A24B5B69A14A43F0080353619E4B1B689D4A43F0E7
S32D000105D8080313609A4B4FF480725A62984B4FF480721A62954B4FF480721A61934B4FF480725A61914B4FF48F
S32D0001060080729A618F4B4FF48072DA618D4B4FF480721A638B4B4FF480725A63894B4FF480729A63874B4FF427
S32D000106288072DA63854B4FF480721A64834B4FF480725A64814B4FF480729A647F4B4FF48072DA64814B4FF4E5
S32D0001065080721A607F4B4FF480729A607D4B4FF48072DA607B4B4FF480721A61784B5B69774A43F44073536183
S32D00010678744B5B69734A43F47F2343F0F0035361734B5B69724A43F01D035361E221786800F094FD1D21786899
S32D000106A000F036FE0221786800F032FE0421786800F02EFEE021786800F084FD0121786800F026FE6420FEF7E2
S32D000106C8EFFEE021786800F079FD0321786800F01BFE0121786800F071FD0120FEF7E0FEE621786800F06AFD30
S32D000106F00121786800F00CFEA021786800F008FEFF21786800F004FEB021786800F05AFD1C21786800F0FCFD58
S32D000107180F21786800F0F8FD0121786800F0F4FD3F21786800F0F0FD0021786800F0ECFDEF21786800F0E8FD1E
S32D000107400021786800F0E4FDB421786800F03AFD0121786800F0DCFD9921786800F0D8FD0021786800F0D4FDF0
S32D000107684521786800F0D0FD0221786800F0CCFD0021786800F0C8FD0021786800F0C4FD0021786800F0C0FD8D
S32D00010790B621786800F016FD0121786800F0B8FD0921786800F0B4FD0021786800F0B0FD0E21786800F0ACFDE8
S32D000107B80221786800F0A8FD0021786800F0A4FD0021786800F0A0FDBA21786800F0F6FC0F21786800F098FD28
S32D000107E06420FEF761FE3A21786800F0EBFC6021786800F08DFD2A21786800F0E3FC0021786800F085FD002197
S32D00010808786800F081FD0121786800F07DFD3F21786800F079FD2B21786800F0CFFC0021786800F071FD0021FA
S32D00010830786800F06DFD0021786800F069FDEF2178680BE000B0044000A0044080F00F4040F00F4000C0044013
S32D00010858C0F00F4000F058FD3621786800F0AEFC0021786800F050FDF021786800F0A6FC0421786800F048FD61
S32D00010880B821786800F09EFC0F21786800F040FD0121786800F03CFD314B1B68304A43F0080313606420FEF7FB
S32D000108A8FFFD3621786800F089FC0021786800F02BFDF021786800F081FC0421786800F023FD0121786800F0FB
S32D000108D0BCF91E226F21786800F082F8AF225621786800F0DBF80021786800F00AFA012301221C49786800F0CE
S32D000108F82BFA2921786800F061FC6420FEF7D0FDBE21786800F05AFC0E21786800F0FCFCF021786800F0F8FC1E
S32D000109200121786800F0F4FC0021786800F0F0FC0021786800F0ECFC0F21786800F0E8FC786800F028FA012118
S32D00010948786800F0DAF90021786800F0AFF900BF0837BD4680BD00BF40F00F4044B2010080B582B000AF7860E3
S32D000109707B680022DA617B6801221A627B680E225A607B681A229A607B6800225A617B6800229A617B684FF4CA
S32D00010998A072DA607B68F0221A617B6800221A70786801F0E5F97B6818460837BD4680BD80B582B000AF786088
S32D000109C0064B1B78002B05D1044B01221A707868FFF7C2FD00BF0837BD4680BD441A002080B58AB002AFF8605E
S32D000109E8B9607A607E23009362237A68B968F86800F079FE40F24E733B610023FB61FA693B699A4240DA00233C
S32D00010A10BB61214AFB6913441B781A46BB69934232DAFB6901331C4AD35C002B06D1FF23FB75FF23BB75FF2348
S32D00010A387B7512E0FB690133154AD35C012B06D1D423FB750023BB7526237B7505E0B523FB75BA23BB75B02384
S32D00010A607B757B7DBA7DF97DF86800F0C9F80246FB68DA61F86801F07FF9F86801F0B8F8BB690133BB61C4E7F2
S32D00010A88FB690233FB61BAE700BF2037BD4680BD0400002080B58AB002AFF860B9607A602723009395237A684D
S32D00010AB0B968F86800F01BFE40F2E6333B610023FB61FA693B699A4240DA0023BB61214AFB6913441B781A46D2
S32D00010AD8BB69934232DAFB6901331C4AD35C002B06D1FF23FB75FF23BB75FF237B7512E0FB690133154AD35CAD
S32D00010B00012B06D10023FB750023BB7500237B7505E0D423FB750023BB7526237B757B7DBA7DF97DF86800F0FD
S32D00010B286BF80246FB68DA61F86801F021F9F86801F05AF8BB690133BB61C4E7FB690233FB61BAE700BF20377C
S32D00010B50BD4680BD5407002080B485B000AF78600B46FB70FB78062B29D801A252F823F0950B01008D0B010030
S32D00010B789B0B0100A30B0100AB0B0100B10B0100B90B01006FF07F43FB6014E00023FB6011E04FF47F03FB60C0
S32D00010BA00DE04FF47F43FB6009E0FF23FB6006E04FF41903FB6002E0044BFB6000BFFB6818461437BD4680BC3D
S32D00010BC8704700BF9999990080B584B000AF786039603B681B0CFB733B681B0ABB733B687B737B7BBA7BF97BD6
S32D00010BF0786800F005F8034618461037BD4680BD80B487B000AF7860084611461A460346FB700B46BB7013465B
S32D00010C187B70FB789B08DBB27B61BB789B08DBB23B617B789B08DBB2FB607B691A033B699B011A43FB6813436F
S32D00010C4018461C37BD4680BC704780B582B000AF78600B46FB70FB7819467868FFF77CFF03461946786800F099
S32D00010C6804F800BF0837BD4680BD80B582B000AF7860396039687868FFF7A6FF02467B681A62786801F074F89C
S32D00010C90786800F0D5FB00BF0837BD4680BD80B582B000AF7860786800F0CAFB00BF0837BD4680BD80B582B02F
S32D00010CB800AF78600B46FB70FB7819467868FFF747FF03461946786800F004F800BF0837BD4680BD80B582B0C3
S32D00010CE000AF7860396039687868FFF771FF02467B681A62786801F03FF800BF0837BD4680BD80B582B000AFDB
S32D00010D0878600B46FB70FB7819467868FFF720FF03461946786800F004F800BF0837BD4680BD80B582B000AF99
S32D00010D307860396039687868FFF74AFF02467B68DA61786801F018F800BF0837BD4680BD80B586B000AFF8606C
S32D00010D58B9607A603B6000237B617B69BA6813441B78002B0FD07B69BA6813441B783A687968F86800F0F6FD2F
S32D00010D807B680C337B607B6901337B61E9E700BF1837BD4680BD80B582B000AF7860FCF7A3FE67210120FCF717
S32D00010DA80EFE00210220FCF70AFEA0210320FCF706FE50210420FCF702FE20210520FCF7FEFD20210620FCF7C1
S32D00010DD0FAFD77210720FCF7F6FD00210820FCF7F2FD00210920FCF7EEFD00210A20FCF7EAFD04210B20FCF79D
S32D00010DF8E6FD7B684FF0FF32DA637B684FF0FF321A6400BF0837BD4680BDFFFFFFFFFFFF80B586B000AFF860DE
S32D00010E20B9607A600020FCF7F0FD0346FB75FB7D03F00203002B00F0CE80FCF703FEE020FCF7B4FD0220FEF76F
S32D00010E482FFBFCF709FE0120FEF72AFBFCF7F6FDA520FCF7A7FD0120FEF722FBFCF7C9FD03469BB21B02BB82FE
S32D00010E70FCF7C3FD03469AB2BB8A1343BB82FCF7BCFD03469BB21B027B82FCF7B6FD03469AB27B8A13437B8244
S32D00010E98BB8A1B09BB827B8A1B097B82FCF7DCFDFB68DB6BB3F1FF3F34D1FB681B6CB3F1FF3F2FD1BA8AFB6890
S32D00010EC0DA637A8AFB681A647B8AC3F57F630F337B82BB8A184602F0ABFE49A3D3E9002302F010FF02460B4660
S32D00010EE81046194603F0ECF90246BB681A607B8A184602F099FE42A3D3E9002302F0FEFE02460B46104619467D
S32D00010F1003F0DAF902467B681A605AE0FB68DA6BBB8AD31A1946F86800F074F80346632B0CDCFB681A6C7B8A6B
S32D00010F38D31A1946F86800F069F80346632B01DC012300E00023002B2FD0BA8AFB68DA637A8AFB681A647B8ABA
S32D00010F60C3F57F630F337B82BB8A184602F060FE23A3D3E9002302F0C5FE02460B461046194603F0A1F9024619
S32D00010F88BB681A607B8A184602F04EFE1CA3D3E9002302F0B3FE02460B461046194603F08FF902467B681A604D
S32D00010FB00FE0BB68164A1A607B68154A1A60FB684FF0FF32DA63FB684FF0FF321A64002310E001230EE0BB68C1
S32D00010FD80D4A1A607B680C4A1A60FB684FF0FF32DA63FB684FF0FF321A64002318461837BD4680BDAFF30080D3
S32D00011000144001144001B43F1EE0011EE001AE3F000080BF80B483B000AF786039603B68002B02DA3B685B4289
S32D000110283B603B6818460C37BD4680BC704780B584B000AF786039600023FB60786800F0BEFAFB683A681344D9
S32D000110501B78002B12D07B6859697B689869FB683A6813441B780246786800F065FC786800F0BDFAFB680133C2
S32D00011078FB60E6E700BF1037BD4680BD80B592B000AF786039604FF00001386803F028FC0346002B1FD038684A
S32D000110A003F036FC03467B64786C03F017FA03461946386803F05CF903461F49184603F061FA0346184603F065
S32D000110C823FC03463B6407F10C003B6C7A6C194904F0AAFC22E03B6883F000433B60386803F012FC03467B64A6
S32D000110F0786C03F0F3F903461946386803F038F903460D49184603F03DFA0346184603F0FFFB03463B6407F107
S32D000111180C003B6C7A6C084904F086FC07F10C0319467868FFF783FF00BF4837BD4680BD00007A4460B201003B
S32D0001114054B2010080B582B000AF78600B46FB70786800F038FA7B6859697B689A69FB78786800F0E9FB78683B
S32D0001116800F041FA00BF0837BD4680BD80B582B000AF78603960786800F021FA39687868FFF755FF786800F0E2
S32D0001119005FA00BF0837BD4680BD80B582B000AF78600B46FB70786800F00DFAFB7819467868FFF7C7FF786824
S32D000111B800F0F0F900BF0837BD4680BD80B483B000AF78600B46FB704D4B1B684C4A23F0080313604B4B1B68EC
S32D000111E04A4A23F480231360484B1B68474A43F480331360454B1B68444A23F440731360414B1B68404A23F48D
S32D00011208435323F0300313603E4B1A68FB785B0203F400733B4913430B603A4B1A68FB785B101B0203F48073F2
S32D00011230364913430B60344B1A68FB789B101B0103F01003304913430B602F4B1A68FB78DB105B0103F0200308
S32D000112582B4913430B602A4B1A68FB781B119B0103F04003264913430B60254B1A68FB785B11DB01DBB22249F5
S32D0001128013430B60204B1A68FB789B111B0303F480531D4913430B601B4B1A6897F90330DB115BB25B0303F46A
S32D000112A80053174913430B60164B1B68154A23F400331360134B1B68124A43F4003313600F4B1B680E4A43F021
S32D000112D0080313600D4B1B680C4A43F440731360094B1B68084A43F4435343F030031360064B1B68054A43F4BA
S32D000112F88023136000BF0C37BD4680BC704700BF80F00F4040F00F4080B483B000AF78600B46FB70464B1B68FE
S32D00011320454A23F008031360444B1B68434A43F480331360414B1B68404A43F4802313603E4B1B683D4A23F4F2
S32D00011348407313603A4B1B68394A23F4435323F030031360374B1A68FB785B0203F40073344913430B60334B65
S32D000113701A68FB785B101B0203F480732F4913430B602D4B1A68FB789B101B0103F01003294913430B60284BCE
S32D000113981A68FB78DB105B0103F02003244913430B60234B1A68FB781B119B0103F040031F4913430B601E4BB3
S32D000113C01A68FB785B11DB01DBB21B4913430B60194B1A68FB789B111B0303F48053164913430B60144B1A6821
S32D000113E897F90330DB115BB25B0303F40053104913430B600F4B1B680E4A23F4003313600C4B1B680B4A43F400
S32D0001141000331360084B1B68074A43F008031360064B1B68054A23F48023136000BF0C37BD4680BC704700BF28
S32D0001143880F00F4040F00F4080B586B000AF78607B6800225A617B6800229A617B681B6AFB60FB68FB72FB689F
S32D000114601B0ABB72FB681B0CDBB203F003037B722A217868FFF7A6FE00217868FFF748FF00217868FFF744FFD1
S32D0001148801217868FFF740FF3F217868FFF73CFF2B217868FFF792FE00217868FFF734FF00217868FFF730FF8B
S32D000114B000217868FFF72CFFEF217868FFF728FF2C217868FFF77EFE314B1B68304A23F4407313602F4B1B688C
S32D000114D82E4A23F47F2323F0F00313602C4B1B682B4A23F01D031360274B1A687B681B6B254913430B60254B2A
S32D000115001A687B685B6B234913430B60224B1A687B689B6B204913430B601E4B1B681D4A23F0080313601A4B19
S32D000115281B68194A43F48023136000237B617B69EF2B19D800233B613B69B3F5A07F0FD2114B1B68104A23F418
S32D00011550003313600E4B1B680D4A43F4003313603B6901333B61EBE77B6901337B61E2E7084B1B68074A43F059
S32D0001157808031360044B1B68034A23F48023136000BF1837BD4680BD40F00F4080F00F40C0F00F4080B483B088
S32D000115A000AF78607B689B69002B07DD7B685B695A1C7B685A617B6800229A6100BF0C37BD4680BC704780B5B7
S32D000115C882B000AF78607B685A697B685B689A4205DB7B6800225A617868FFF72DFF00BF0837BD4680BD80B5FE
S32D000115F082B000AF78607B689B695A1C7B689A617B689A697B689B689A4205D17868FFF7C5FF7868FFF7D7FF14
S32D0001161800BF0837BD4680BD80B586B002AFF860B9607A600123009301237A68B968F86800F059F8F86800F02F
S32D00011640D7FA00BF1037BD4680BD80B485B000AF786039607B681B68FB603B681A687B681A603B68FA681A6019
S32D0001166800BF1437BD4680BC704780B586B002AFF860B9607A603B60BA683B681A447B68009313467A68B9685C
S32D00011690F86800F0ABF8BA683B68D118BA683B68D0187A68BB691344009303467A68F86800F09CF8BA683B6819
S32D000116B8D1187A68BB69D0187A68BB6913440093BB680246F86800F08DF87A68BB691A447B680093BB68B968DE
S32D000116E0F86800F083F800BF1037BD4680BD80B588B000AFF860B9607A603B60FB681B78022B03D0FB681B78DC
S32D00011708032B11D17B68FB61BA6AFB691344013BBB61FB68DA68BB68D31A3B613B683A69D31A01337B610DE0AB
S32D00011730BB68FB613A68FB691344013BBB617B687B61BA6A7B691344013B3B612A21F868FFF738FDFB691B0A01
S32D00011758DBB203F00F03DBB21946F868FFF7D4FDFB69DBB21946F868FFF7CEFDBB691B0ADBB203F00F03DBB2E4
S32D000117801946F868FFF7C4FDBB69DBB21946F868FFF7BEFD2B21F868FFF714FD7B691B0ADBB203F00F03DBB2C8
S32D000117A81946F868FFF7B0FD7B69DBB21946F868FFF7AAFD3B691B0ADBB203F00F03DBB21946F868FFF7A0FDA9
S32D000117D03B69DBB21946F868FFF79AFD2C21F868FFF7F0FC00BF2037BD4680BD90B58BB000AFF860B9607A600E
S32D000117F83B603A68BB68D31A1946F868FFF706FCF861BA6B7B68D31A1946F868FFF7FEFBB861BA69FB699A4246
S32D00011820CCBF01230023FB75FB7D002B0CD03A1D07F1080311461846FFF707FF3B4607F138011846FFF701FFC7
S32D00011848BA683B689A420CDD3A4607F1080311461846FFF7F6FE3B1D07F138011846FFF7F0FE3A68BB689A4259
S32D0001187006D1BB687A681946F868FFF7D1FE55E0BA6B7B68D31A184602F028FE04463A68BB68D31A184602F0FD
S32D0001189821FE03461946204602F024FF03463B617B68184602F016FE03467B62BB683B623B683A6A9A4235DC99
S32D000118C0FB7D002B14D0786A02F0C4F94FF00002184B02F061F802460B461046194602F0ABFC03463A6A1946BF
S32D000118E8F868FFF799FE13E0786A02F0AFF94FF000020E4B02F04CF802460B461046194602F096FC03461A462A
S32D00011910396AF868FFF784FE3969786A02F02AFD03467B623B6A01333B62C5E72C37BD4690BD00BF0000E03FB7
S32D0001193880B584B000AFF860B9607A60FB707A6813465B0013449B00991CBA6813461B011344DA1CFB78F868BE
S32D0001196000F004F800BF1037BD4680BD80B58EB002AFF860B9607A60FB70FB780A2B06D1F868FFF720FEF868F9
S32D00011988FFF708FEF2E0FB787D2B02D8FB781F2B01D82023FB70FB78203BFB70112300930C237A68B968F86897
S32D000119B0FFF79DFEFA7813469B0013446F4AD35C3B75FA7813469B00134401336B4AD35C7B75FA7813469B00F7
S32D000119D813440233674AD35CBB75FA7813469B0013440333634AD35CFB75FA7813469B00134404335F4AD35C39
S32D00011A003B760023BB62BB6A062B00F3A180F86800F050F9F86800F0B3F8002387F82F3000237B627B6A042BB3
S32D00011A2835DC07F114027B6A13441B7803F00103002B14BF01230023FB76FB7E002B11D097F82F3083F001030A
S32D00011A50DBB2002B03D0F86800F0CAF802E0F86800F08EF8F86800F08BF80DE097F82F30002B03D0F86800F016
S32D00011A781DF902E0F86800F07FF8F86800F07CF8FB7E87F82F307B6A01337B62C6E797F82F30002B03D0F86876
S32D00011AA000F008F902E0F86800F06AF8F86800F067F8002387F82F3000233B623B6A042B42DC07F114023B6A7D
S32D00011AC813441B7803F00103002B14BF01230023BB76BB7E002B11D097F82F3083F00103DBB2002B03D0F86803
S32D00011AF000F07EF802E0F86800F042F8F86800F03FF80DE097F82F30002B03D0F86800F0D1F802E0F86800F04A
S32D00011B1833F8F86800F030F8BB7E87F82F3007F114023B6A13441B785B08D9B207F114023B6A13440A461A7075
S32D00011B403B6A01333B62B9E7BB6A0133BB625AE7F86800F0AFF8002387F82F300123FB61FB69232B06DCF8683D
S32D00011B6800F00AF8FB690133FB61F5E73037BD4680BD00BF3C0B002080B483B000AF7860174B1B68164A43F455
S32D00011B9080331360154B1B68144A23F008031360114B1B68104A43F4802313600E4B1B680D4A23F400331360B8
S32D00011BB80B4B1B680A4A43F400331360094B1B68084A43F008031360054B1B68044A23F48023136000BF0C37CA
S32D00011BE0BD4680BC704700BF40F00F4080F00F4080B483B000AF78602B4B1B682A4A43F480331360294B1B6834
S32D00011C08284A23F008031360254B1B68244A43F480231360224B1B68214A23F440731360204B1B681F4A23F4F6
S32D00011C307F2323F0F00313601D4B1B681C4A23F01D031360184B1A687B685B6A164913430B60164B1A687B6800
S32D00011C589B6A144913430B60134B1A687B68DB6A114913430B600E4B1B680D4A23F4003313600B4B1B680A4AFA
S32D00011C8043F400331360094B1B68084A43F008031360054B1B68044A23F48023136000BF0C37BD4680BC704738
S32D00011CA840F00F4080F00F40C0F00F4080B483B000AF78602B4B1B682A4A43F480331360294B1B68284A23F09C
S32D00011CD008031360254B1B68244A43F480231360224B1B68214A23F440731360204B1B681F4A23F47F2323F0FE
S32D00011CF8F00313601D4B1B681C4A23F01D031360184B1A687B681B6B164913430B60164B1A687B685B6B144909
S32D00011D2013430B60134B1A687B689B6B114913430B600E4B1B680D4A23F4003313600B4B1B680A4A43F4003368
S32D00011D481360094B1B68084A43F008031360054B1B68044A23F48023136000BF0C37BD4680BC704740F00F405A
S32D00011D7080F00F40C0F00F4080B485B000AF78607B681B6AFB60FB68FB72FB681B0ABB72FB681B0CDBB203F044
S32D00011D9803037B727B6800225A627B6800229A627B680022DA627B6800221A637B6800225A637B6800229A63E0
S32D00011DC07B681A6BFB7A5B0203F400731A437B681A637B681A6BFB7A5B101B0203F480731A437B681A637B68A4
S32D00011DE85A6BFB7A9B101B0103F010031A437B685A637B685A6BFB7ADB105B0103F020031A437B685A637B686E
S32D00011E105A6BFB7A1B119B0103F040031A437B685A637B685A6BFB7A5B11DB01DBB21A437B685A637B685A6BD7
S32D00011E38FB7A9B111B0303F480531A437B685A637B685A6B97F90B30DB115BB25B0303F400531A437B685A6364
S32D00011E607B685A6BBB7A9B0303F480431A437B685A637B685A6BBB7A5B10DB039BB21A437B685A637B685A6B09
S32D00011E88BB7A9B101B0403F480331A437B685A637B685A6BBB7ADB105B0403F400331A437B685A637B685A6B8F
S32D00011EB0BB7A1B119B0403F480231A437B685A637B685A6BBB7A5B11DB0403F400231A437B685A637B689A6B45
S32D00011ED8BB7A9B1103F001031A437B689A637B689A6B97F90A30DB115BB29B0003F004031A437B689A637B6866
S32D00011F009A6B7B7ADB0003F008031A437B689A637B689A6B7B7A5B101B0103F010031A437B689A637B68DB69D4
S32D00011F28FB60FB68FB72FB681B0ABB72FB681B0CDBB203F003037B727B685A6AFB7A5B0203F400731A437B688A
S32D00011F505A627B685A6AFB7A5B101B0203F480731A437B685A627B689A6AFB7A9B101B0103F010031A437B68B3
S32D00011F789A627B689A6AFB7ADB105B0103F020031A437B689A627B689A6AFB7A1B119B0103F040031A437B68AF
S32D00011FA09A627B689A6AFB7A5B11DB01DBB21A437B689A627B689A6AFB7A9B111B0303F480531A437B689A627D
S32D00011FC87B689A6A97F90B30DB115BB25B0303F400531A437B689A627B689A6ABB7A9B0303F480431A437B68A7
S32D00011FF09A627B689A6ABB7A5B10DB039BB21A437B689A627B689A6ABB7A9B101B0403F480331A437B689A620C
S32D000120187B689A6ABB7ADB105B0403F400331A437B689A627B689A6ABB7A1B119B0403F480231A437B689A6210
S32D000120407B689A6ABB7A5B11DB0403F400231A437B689A627B68DA6ABB7A9B1103F001031A437B68DA627B6856
S32D00012068DA6A97F90A30DB115BB29B0003F004031A437B68DA627B68DA6A7B7ADB0003F008031A437B68DA62C0
S32D000120907B68DA6A7B7A5B101B0103F010031A437B68DA6200BF1437BD4680BC704780B483B000AF78607B682B
S32D000120B818460C37BD4680BC704780B584B000AFF860B9607A603B60FB682033B968184603F0CAFCFB687A6831
S32D000120E01A60FB683A689A60FB68BA691A61FB68FA695A61FB681A68FB681B691A44FB685A60FB689A68FB68C7
S32D000121085B691A44FB68DA60FB683A6A9A61FB687A6ADA61FB680022C3F8E82000BF1037BD4680BDF0B585B0FD
S32D0001213002AF78607B689B6919461F48FEF7F5FD7B6819687B689A687B6818697B685B69009303461848FFF7DD
S32D000121588CFA7B68DB6919461548FEF7E2FD7B6803F120047B681B681D467B681B691E467B682033184603F005
S32D00012180DFFC024613465B0013449B00F31A5B082B4418467B689A687B685B69113BD90F0B445B101344024611
S32D000121A821460348FEF7D0FD00BF0C37BD46F0BD001A002080B584B002AF78607B689B6919461F48FEF7ADFD6A
S32D000121D07B681B68591C7B689B685A1C7B681B69981E7B685B69023B009303461648FFF740FA7B681B68991C23
S32D000121F87B689B689A1C7B681B69181F7B685B69043B009303460E48FFF72FFA7B681B68D91C7B689B68DA1C10
S32D000122207B681B69981F7B685B69063B009303460548FFF71EFA7B680122C3F8E82000BF0837BD4680BD00BF8C
S32D00012248001A002080B584B002AF786000211F48FEF767FD7B681B68D91C7B689B68DA1C7B681B69981F7B6822
S32D000122705B69063B009303461648FFF7FAF97B681B68991C7B689B689A1C7B681B69181F7B685B69043B009349
S32D0001229803460E48FFF7E9F97B681B68591C7B689B685A1C7B681B69981E7B685B69023B009303460548FFF749
S32D000122C0D8F97B680022C3F8E82000BF0837BD4680BD00BF001A002080B584B000AFF860B9607A603B60FB68BE
S32D000122E81B68184602F0F6F80246BB681946104602F0ECFA0346002B00F08180FB685B68184602F0E7F802460C
S32D00012310BB681946104602F0E7FA0346002B72D0FB689B68184602F0D9F802467B681946104602F0CFFA0346D2
S32D00012338002B64D0FB68DB68184602F0CBF802467B681946104602F0CBFA0346002B56D03A1D07F10803194674
S32D000123602B48FEF759FDFB681B68184602F0B6F80246BB681946104602F0ACFA0346002B3FD0FB685B681846ED
S32D0001238802F0A8F80246BB681946104602F0A8FA0346002B31D0FB689B68184602F09AF802467B681946104643
S32D000123B002F090FA0346002B23D0FB68DB68184602F08CF802467B681946104602F08CFA0346002B15D03B684D
S32D000123D8002B10D1FB68D3F8E830002B03D1F868FFF7E8FE07E0FB68D3F8E830002B02D0F868FFF727FF01237F
S32D0001240002E0002300E0002318461037BD4680BD001A002080B586B000AFF860B9607A60BB687B617B683B61A3
S32D0001242879693A690123F868FFF752FF0346002B14BF01230023DBB2002B08D007F1100207F114031946044853
S32D00012450FEF7E2FCE8E700BF1837BD4680BD00BF001A0020B0B592B004AFF860B9607A603B60FB6C7B633B684C
S32D000124783B63F86C01F0D8FB02460B464FF000004E4901F083FA02460B4614461D46386D01F0CAFB02460B4648
S32D000124A02046294601F076FA02460B461046194601F00AFF03463B62386801F0B9FB02460B464FF00000404903
S32D000124C801F064FA02460B4614461D46B86C01F0ABFB02460B462046294601F057FA02460B461046194601F096
S32D000124F0EBFE0346FB61786801F0F0FF03461946386A02F0F3F80346184602F001FA0346BB61B86801F0E2FF5D
S32D0001251803461946F86902F0E5F80346184602F0F3F903467B6100237B620123BB62BA6ABB689A423DDC012371
S32D00012540FB62FA6A7B689A422DDC7B6AEC2202FB03F3FA68D0187A6A13469B0013449B001A467B6D9918FB6D88
S32D000125680393BB6D02937B690193BB6900933B6B7A6BFFF7A2FD7B6AEC2202FB03F3FA6813441846FFF7CEFDE4
S32D000125907B6A01337B627A6BBB6913447B63FB6A0133FB62CDE73A6B7B6913443B63FB6C7B63BB6A0133BB6205
S32D000125B8BDE700BF3837BD46B0BD00BF0000744000006E4080B582B000AF786039607B68012B07D13B684FF63B
S32D000125E0FF72934202D10348FEF7BEF900BF0837BD4680BD001A002080B500AF4FF6FF710120FFF7E3FF80BD75
S32D0001260880B582B000AF7860164B03F580535B6B144A43F0400302F580525363124B4FF400725A62104B4FF404
S32D0001263000721A620F4B14225A700E4B1B7ADBB20C4A43F00103DBB213720A4B80229A7002212B20FBF740F97F
S32D000126583D212A20FBF73CF97B6818460837BD4680BD00BF0070044000C004400060064080B582B000AF7860B9
S32D0001268039607B68012B07D13B684FF6FF72934202D10348FFF7B8FF00BF0837BD4680BD481A002080B500AF0E
S32D000126A84FF6FF710120FFF7E3FF80BDFFFFFFFF80B582B000AF78607B681846FDF794FB03460F49184601F07A
S32D000126D059FF0346184601F0BDFA09A3D3E9002301F03AFC02460B461046194601F0ECFD034618460837BD4671
S32D000126F880BD00BFAFF300800000000000A0694000404A4480B582B000AF78600B46FB707B68FA7811461846CA
S32D00012720FDF754FB7B6818460837BD4680BDFFFF80B582B000AF786039607B68012B08D13B684FF6FF729342EC
S32D0001274803D120210348FFF7DDFF00BF0837BD4680BD00BF4C1A002080B500AF4FF6FF710120FFF7E1FF80BDE0
S32D0001277080B483B000AF78607B6800221A707B6818460C37BD4680BC7047FFFF80B582B000AF78607B681B78E1
S32D0001279883F00103DBB2002B52D07B6801221A702A4B03F580535B6B284A43F4806302F580525363264B4FF46C
S32D000127C000725A60244B4FF400729A60234B1B684FF4165219462248FBF7D6F9204BDB78DBB21F4A23F00C03A4
S32D000127E8DBB2D3701C4BDB78DBB21B4A43F02003DBB2D370184BDB7ADBB2174A23F02003DBB2D372154BD3F847
S32D000128108431144A43F40053C2F88431114B5B68104A43F4005353600D4BDB78DBB20C4A43F00C03DBB2D37037
S32D000128386420FCF735FE7B6801221A70012300E0002318460837BD4680BD00BF0070044000900440481900206B
S32D0001286000A0064000E100E080B483B000AF78607B681B7818460C37BD4680BC7047FFFF80B487B000AFF86037
S32D00012888B9607A60FB700023FB7400237B617A697B689A422BD2194B1B78002B00D1FAE7BA687B691344164A02
S32D000128B012781A70134B00221A70BA687B6913441B780D2B16D0FB7C83F00103DBB2002B0CD0BA687B691344EE
S32D000128D81B78FA789A4202D10123FB7402E07B69013B7B617B6901337B61D0E700BF7B6918461C37BD4680BC6E
S32D00012900704700BF661A0020671A002080B586B000AFF860B9607A6000237B617A697B689A420BD2BA687B6908
